:020000040800F2
:10000000200C0020CD010008051A0008A9100008E6
:10001000011A0008C1020008B32700080000000010
:10002000000000000000000000000000CD210008DA
:10003000D907000800000000D72000084524000868
:10004000E7010008E7010008E7010008E7010008F0
:10005000E7010008E7010008DD07000811080008B3
:10006000E7010008E7010008E7010008E7010008D0
:10007000E7010008E7010008E7010008E7010008C0
:10008000E7010008E7010008E7010008E7010008B0
:10009000E7010008E7010008E7010008E7010008A0
:1000A000E7010008E7010008E7010008E701000890
:1000B000E7010008D9240008E7010008E70100086B
:1000C000E7010008E7010008E7010008E701000870
:1000D000E701000891250008E7010008E701000892
:1000E000E7010008E7010008E7010008E701000850
:1000F000E7010008E7010008E7010008E701000840
:10010000E7010008E7010008E7010008E70100082F
:10011000E7010008E7010008E7010008E70100081F
:10012000E7010008E7010008E7010008E70100080F
:1001300000F002F800F03AF80AA090E8000C8244BF
:100140008344AAF10107DA4501D100F02FF8AFF29C
:10015000090EBAE80F0013F0010F18BFFB1A43F0A5
:1001600001031847385D0000585D0000103A24BFB5
:1001700078C878C1FAD8520724BF30C830C144BF0C
:1001800004680C607047000000230024002500264E
:10019000103A28BF78C1FBD8520728BF30C148BFEA
:1001A0000B6070471FB51FBD10B510BD00F033F8D0
:1001B0001146FFF7F7FF02F06FFB00F051F803B4B0
:1001C000FFF7F2FF03BC02F0F6FA0000094880478F
:1001D00009480047FEE7FEE7FEE7FEE7FEE7FEE729
:1001E000FEE7FEE7FEE7FEE704480549054A064B41
:1001F0007047000079240008310100082006002023
:10020000200C0020200800202008002070477047A4
:10021000704770477047754600F02CF8AE460500F1
:100220006946534620F00700854618B020B5FFF711
:10023000DBFFBDE820404FF000064FF000074FF015
:1002400000084FF0000B21F00701AC46ACE8C009F4
:10025000ACE8C009ACE8C009ACE8C0098D467047FD
:1002600010B50446AFF300802046BDE81040FFF70C
:10027000A6BF000000487047C005002010B50E481A
:100280000068B0B9142002F0BBFA00BF0A48006849
:100290000028FBD0142002F0B3FA0848007830B1EF
:1002A00006480078401E0549087001F0F5FB012062
:1002B00010BD0020FCE7000018812142030000204F
:1002C00000BFFEE72DE9FE43002400BF04E000204C
:1002D00001A90855601CC4B2042CF8DB002496E088
:1002E000002000F0AFF980466C480168404603F0FA
:1002F000F7F96B490860084601686A48006802F02F
:1003000059FF684908604FF07E51384602F052FFAD
:1003100007466549384603F07DF876D16249614861
:10032000006802F0B5FF5F49086060495D480068F9
:1003300003F0D8F85B4908605D495A48006803F04B
:100340009DF917D85B4A9168506802F033FF8146E7
:100350004FF0804102F09CFF8046524801684046C1
:1003600003F08CF906D29DF80500401CC0B28DF850
:10037000050046E04F4A9168506802F01BFF814635
:100380004FF0804102F084FF8046464801684046B5
:1003900003F074F817D2474AD168906802F00AFF58
:1003A00081464FF0804102F073FF80463D4801686E
:1003B000404603F063F906D29DF80600401CC0B227
:1003C0008DF806001DE03B4AD168906802F0F2FE0D
:1003D00081464FF0804102F05BFF80463148016862
:1003E000404603F04BF806D29DF80700401CC0B20F
:1003F0008DF8070005E09DF80400401CC0B28DF8A0
:1004000004000020274908600027601CC4B2C82CE3
:10041000FFF666AF9DF804600025002408E001A8FF
:10042000005DB04202DB01A8065D2546601CC4B237
:10043000032CF4DD012D0AD10120202300221021FC
:100440000090302001F040FD01F06CFC23E0022D13
:100450000AD101202023024610210090302001F013
:1004600033FD01F05FFC16E0032D0AD101202023AB
:10047000022210210090302001F026FD01F052FCF4
:1004800009E001202023032210210090302001F0F8
:100490001BFD01F047FCBDE8FE83000008000020C2
:1004A0000C000020100000200000204100007A44D1
:1004B00000001643680000202DE9F84F0026002EAA
:1004C0007ED10124A9E000F0E1F801200090601E37
:1004D000C2B220231821302001F0F6FC01F022FCEA
:1004E0004FF47A7002F08CF9FFF7C8FE012800D1B2
:1004F00003244FF47A7002F083F9FFF7BFFE01285E
:1005000000D103244FF47A7002F07AF901F0C4FAB2
:1005100001F066F80027002561E04FF0000916E0C1
:10052000002000F08FF882463F480168504603F0F3
:10053000D7F83E49086008460168404602F03AFE96
:1005400080464FF07E51484602F034FE81463849DD
:10055000484602F093FFE3D33549404602F098FE47
:10056000824634480168504602F024FE3149086052
:100570004FF00008322002F043F90120009005EB13
:1005800045004006020E34231946002001F09CFA73
:100590000120009005EB45004006020E3523194668
:1005A000002001F091FA0120009005EB4500400683
:1005B000020E36231946002001F086FA012000E0E1
:1005C0002EE0009005EB45004006020E3723194649
:1005D000002001F079FA01F0A5FB681C85B2142D0A
:1005E0009BDB01F059FA14491248006802F050FEF2
:1005F0001049086011490F48006802F073FF104964
:1006000041F82400032C06D1012601F09BFF4FF492
:100610007A7002F0F5F8601C84B2032C7FF753AFB8
:1006200001F03AFABDE8F88F080000200C00002025
:1006300000002041100000200000A04100007A448A
:10064000680000202DE9F0478146484600F000FA96
:100650000B4908600846006802F0BCFB07463A46B2
:100660000B460848084902F05DFA054602F074F9A5
:1006700004462146204602F035FFBDE8F087000021
:100680004C000020DBF97E6AB8A8AB4108B5012018
:100690001023192200210090084601F015FC0120CA
:1006A00010231A2200210090184601F00DFC0120B1
:1006B00010231B2200210090202001F005FC0120C6
:1006C00010231C2200210090302001F0FDFB0120AE
:1006D00010231D2200210090402001F0F5FB08BDF1
:1006E00010B537480068002869D1142002F088F856
:1006F00000BF334800680028FBD0142002F080F8C7
:1007000001F0CAF92F48007848B92F4800782F49DE
:1007100008702C480078401C2A4908704FE029488E
:100720000078012809D1284800782949087025480F
:100730000078401C2349087041E0224800780228D4
:100740003DD12248007820BB2148007880B900F0D4
:100750002BF90020FFF776FF1E49086006E0FFF73F
:10076000B1FDFFF78BFD012800D100E0F7E726E09F
:1007700000F01AF90020FFF765FF1649086006E04F
:1007800000F094FCFFF77AFD012800D100E0F7E7C4
:1007900015E00F48007848B900F006F90020FFF78F
:1007A00051FF0C490860FFF787FE08E000F0FCF8F5
:1007B0000020FFF747FF0749086000F0C7FD10BDA4
:1007C0003C01214203000020000000200400002022
:1007D00005000020080000207047000010B501202F
:1007E00000F036F801280DD10221074800F04FFC37
:1007F00028B906480078C0F10100044908700120BA
:1008000000F020F810BD0000000C014000000020A6
:1008100010B5022000F01CF801280DD10121074875
:1008200000F035FC28B906480078C0F10100044901
:100830000870022000F006F810BD0000000C014016
:1008400000000020014908607047000014040140C6
:10085000014600200022074B1B6803EA0102054BFA
:1008600014331B680B4013B10AB1012000E00020D3
:100870007047000000040140002123498279002ACA
:100880003AD00A46126803689A430B461A600A1D5A
:10089000126803689A430B1D1A60027911440A68B2
:1008A00003681A430A60184A0832126803689A43B8
:1008B000154B08331A601A1D126803689A43124BCD
:1008C0000C331A604279102A0ED11A1F126803687D
:1008D0001A430D4B08331A601A1D126803681A4335
:1008E000094B0C331A600DE00749427911440A683C
:1008F00003681A430A6005E0027911440A68036834
:100900009A430A6070470000000401401FB50121AE
:10091000082001F0E1FB0121084601F0DDFB482041
:100920008DF80F000320ADF80C008DF80E0003A920
:100930001C4800F021FB0021012000F0FDFA0121FC
:10094000084600F0F9FA0320019001208DF80A0012
:1009500000208DF808000C208DF8090001A8FFF791
:100960008BFF4FF4A06001F08DF806208DF8000099
:1009700001208DF803008DF801008DF80200684613
:1009800001F048F807208DF8000001208DF80300E1
:100990008DF8010002208DF80200684601F03AF857
:1009A0001FBD0000000C014038B50120102320229B
:1009B00000210090084601F087FA0220102321222E
:1009C00000210090184601F07FFA03201023222214
:1009D00000210090202001F077FA04201023232228
:1009E00000210090302001F06FFA0120102315A2A1
:1009F00020210090002001F02DFB01F093F900244C
:100A00001AE001223421204601F0B4F801223521F8
:100A1000204601F0AFF801223621204601F0AAF865
:100A200001223721204601F0A5F80A2001F0E8FE56
:100A300001F078F9601CC4B2802CE2DB01F02CF8E4
:100A400038BD00005343414E4E494E470000000060
:100A500070B5054635B1012D0FD0022D18D0032DEC
:100A60002CD120E0002000F0E9F9C0F30B040120B4
:100A700000F0E4F940EA044421E0022000F0DEF94D
:100A8000C0F30B04032000F0D9F940EA044416E057
:100A9000042000F0D3F9C0F30B04052000F0CEF9D8
:100AA00040EA04440BE0062000F0C8F9C0F30B0450
:100AB000072000F0C3F940EA044400E000BF00BF93
:100AC00024F07044204670BD70B500F072F800F05C
:100AD00095F87E2000F0B2F904467F2000F0AEF9D0
:100AE000054645F2494084425FD1FB22342108206B
:100AF00001F020FCFB223421092001F01BFCFB2229
:100B000034210A2001F016FCFB2234210B2001F0D5
:100B100011FC1B220021102001F00CFC1B220021E3
:100B2000112001F007FC1B220021122001F002FC21
:100B30001B220021132001F0FDFB022220211420A2
:100B400001F0F8FB02222021152001F0F3FB022224
:100B50002021162001F0EEFB02222021172001F0B7
:100B6000E9FB002278211E2001F0E4FB002278211D
:100B70001F2001F0DFFB00227821202001F0DAFBAA
:100B800000227821212001F0D5FB002211461920F6
:100B900001F0D0FB0D22C2211B2001F0CBFB012272
:100BA00014211A2001F0C6FB01E0012070BD0020D5
:100BB000FCE7704710B500200B4908600B49C1F8ED
:100BC000AC0100F015F801200749086000F010F8AA
:100BD00000200649C1F8A80100F00AF801200249E6
:100BE000091D086010BD0000A8812142008021423B
:100BF00010B5022001F02AFE10BD000008B5012149
:100C0000082001F069FA4FF44060ADF800001020B0
:100C10008DF8030003208DF802006946044800F0B7
:100C2000ABF94FF44061024800F03CFA08BD000007
:100C3000000C014010B500200E4908600E48006805
:100C400020F470400C4908600846006840F44050A9
:100C5000086001200949C1F8AC01FFF7C9FF012074
:100C600004490860FFF7C4FF00200449C1F8A80147
:100C700010BD0000A8812142040C014000802142E7
:100C800070B5054600241648006820F470401449E9
:100C900008600846006840F400400860002614E040
:100CA000002010490860FFF7A3FF01200E49C1F89A
:100CB000A8016006040E0B487C38006808B1601C6F
:100CC000C4B2FFF795FF701CC6B2082EE8DB15B959
:100CD000FFF7B0FF01E0FFF76DFF204670BD000099
:100CE000040C0140A88121420080214270B50446D5
:100CF0001248006820F470401049086008460068F7
:100D000040F44050086000200D490860002512E0C2
:100D1000E0090B49091D08606006040E012009491D
:100D2000C1F8A801FFF764FF002005490860FFF73C
:100D30005FFF681CC5B2082DEADB70BD040C0140E2
:100D4000A88121420080214210B50E48006820F49D
:100D500070400C4908600846006840F44050086044
:100D60000120094908600949C1F8A801FFF740FFBF
:100D7000002005490860FFF73BFF00200349C1F848
:100D8000A80110BD040C0140AC8121420080214229
:100D900010B50E48006820F470400C490860084601
:100DA000006840F440500860002009490860094983
:100DB000C1F8AC01FFF71CFF012005490860054997
:100DC000C1F8AC01FFF714FF10BD0000040C014096
:100DD000A88121420080214210B5002414480068F7
:100DE00020F47040124908600846006840F4004052
:100DF000086001200F490860FFF7FAFE01200E4944
:100E0000C1F8A801FFF7F4FE07E0601CC4B2FA2C99
:100E100003DDFFF7BDFF012010BD064880380068E4
:100E20000028F2D10349091F086000BFF4E7000061
:100E3000040C0140AC8121420080214270B505467E
:100E4000FFF782FF5420FFF751FFFFF7C5FF284649
:100E5000FFF74CFFFFF7C0FFFFF776FF5520FFF7C6
:100E600045FFFFF7B9FF0120FFF70AFF040200204A
:100E7000FFF706FF0443FFF78BFF204670BD00001D
:100E800008B51D480078022824D01C48007880B995
:100E900001201023132219460090502001F014F86D
:100EA0000120102316A220210090502001F0D2F83A
:100EB00020E001201023132220210090502001F077
:100EC00003F8012010230EA219460090502001F0D3
:100ED000C1F80FE00120102309A22021009050202A
:100EE00001F0B8F80120102305A219460090502007
:100EF00001F0B0F808BD0000030000200000002051
:100F00002020000010B50A48006880B9142001F0C4
:100F100077FC00BF064800680028FBD0142001F0D1
:100F20006FFC04480078C0F101000249087010BD50
:100F3000300121420000002030B500228B071C0F39
:100F40000F2303FA04F20B4B8C1053F82430934315
:100F5000084C8D1044F8253023468C1053F824306B
:100F60008C07240F00FA04F42343024C8D1044F83C
:100F7000253030BD080001402DE9F0410246002532
:100F80000026002000230024002791F803C00CF065
:100F90000F0591F803C00CF0100CBCF1000F03D04A
:100FA00091F802C04CEA050591F800C0BCF1000FB1
:100FB00031D0146800202BE04FF0010C0CFA00F344
:100FC000B1F800C00CEA03069E4220D183004FF026
:100FD0000F0C0CFA03F7BC4305FA03FC4CEA0404BB
:100FE00091F803C0BCF1280F06D14FF0010C0CFAA8
:100FF00000FCC2F814C00AE091F803C0BCF1480F2D
:1010000005D14FF0010C0CFA00FCC2F810C0401CD6
:101010000828D1D31460B1F800C0BCF1FF0F34DD53
:10102000546800202EE000F1080C4FF0010808FA87
:101030000CF3B1F800C00CEA03069E4221D18300F4
:101040004FF00F0C0CFA03F7BC4305FA03FC4CEA13
:10105000040491F803C0BCF1280F05D100F1080C7D
:1010600008FA0CF8C2F8148091F803C0BCF1480FDC
:1010700007D100F1080C4FF0010808FA0CF8C2F88B
:101080001080401C0828CED35460BDE8F081024691
:10109000002093680B400BB1012000E00020704756
:1010A000416170470161704700BFFEE72DE9F04FD5
:1010B00089B0002400BF04E0002006A90855601C88
:1010C000C4B2062CF8DB00240AE10020FFF7BAFACC
:1010D000054695480168284602F002FB93490860DE
:1010E000084601689248006802F064F89049086078
:1010F0004FF07E51584602F05DF883468D495846C0
:1011000002F088F97ED18B498948006802F0C0F866
:101110008749086088498648006802F0E3F98449F5
:10112000086086498248006802F0A8FA17D8844A05
:101130009168506802F03EF806464FF0804102F098
:10114000A7F805467A480168284602F097FA06D2C1
:101150009DF81900401CC0B28DF81900BAE0784A19
:101160009168506802F026F806464FF0804102F080
:101170008FF805466E480168284602F07FF926D8A8
:101180006F4AD168906802F015F8019001F0E6FF0F
:1011900000224FF08043CDE9020101F0C3FC074675
:1011A0000022684B01F0F0FECDE9040160480068C0
:1011B00001F0D4FF0546DDE9042301F01FFE06D24D
:1011C0009DF81A00401CC0B28DF81A0082E05C4AFB
:1011D000D168906801F0EEFF019001F0BFFF054675
:1011E00000224FF0804301F09DFC0022554BCDE9D9
:1011F000020101F0C9FE074688464D48006801F02B
:10120000ADFF00E06AE03A464346CDE9040101F053
:1012100085FE1BD84A4A1169D06801F0CBFF07460A
:101220004FF0804102F034F80646474902F058FA80
:1012300005463F480168284602F020FA06D29DF88C
:101240001B00401CC0B28DF81B0043E03C4A1169F2
:10125000D06801F0AFFF07464FF0804102F018F868
:101260000646394902F03CFA0546314801682846ED
:1012700002F004F917D8324A5169106901F09AFF57
:1012800006464FF0804102F003F805462848016801
:10129000284602F0F3F906D29DF81C00401CC0B2AB
:1012A0008DF81C0016E0264A5169106901F082FF92
:1012B00006464FF0804101F0EBFF05461C480168EF
:1012C000284602F0DBF805D89DF81D00401CC0B28E
:1012D0008DF81D000020164908608346601CC4B2CA
:1012E000C82CFFF6F2AE9DF818904FF0000A0124CA
:1012F00009E006A8005D484503DD06A810F8049043
:10130000A246601CC4B2052CF3DD012000900AF156
:101310000300C2B220231021302000F0D5FD00F0E0
:1013200001FD09B0BDE8F08F080000200C0000208E
:10133000100000200000204100007A4400004843D3
:1013400054000020008041400000F0412DE9F84F9A
:101350000026002E7ED10124B3E0FFF797F901208B
:101360000090E01CC2B220231821302000F0ACFD18
:1013700000F0D8FC4FF47A7001F042FAFEF77EFFDD
:10138000012800D105244FF47A7001F039FAFEF7F4
:1013900075FF012800D105244FF47A7001F030FA6E
:1013A000FEF76CFF012800D1052400F075FB00F06A
:1013B00017F90027002561E04FF0000916E0002032
:1013C000FFF740F9824642480168504602F088F92A
:1013D0004049086008460168404601F0EBFE80463F
:1013E0004FF07E51484601F0E5FE81463A494846B5
:1013F00002F044F8E3D33849404601F049FF824601
:1014000036480168504601F0D5FE344908604FF077
:101410000008322001F0F4F90120009005EB4500AE
:101420004006020E34231946002000F04DFB012037
:10143000009005EB45004006020E352319460020BA
:1014400000F042FB0120009005EB45004006020E33
:10145000362300E038E01946002000F035FB01207B
:10146000009005EB45004006020E37231946002088
:1014700000F02AFB00F056FC681C85B2142D9BDBA3
:1014800000F00AFBFEF7FAFE012800D105241449FA
:101490001248006801F0FCFE1049086011490F482D
:1014A000006802F01FF8104941F82400052C06D10D
:1014B000012601F047F84FF47A7001F0A1F9601CA1
:1014C00084B2052C7FF749AF00F0E6FABDE8F88F4B
:1014D000080000200C000020000020411000002027
:1014E0000000A04100007A445400002010B54FF4E1
:1014F00080510C48FFF7D6FD4FF400510948FFF723
:10150000D1FD00F041F84FF480510648FFF7C8FDC7
:1015100000F03AF84FF400510248FFF7C1FD00F027
:1015200033F810BD000C014010B54FF4805108484D
:10153000FFF7B6FD4FF400510548FFF7B3FD00F08B
:1015400023F84FF480510248FFF7ACFD10BD0000B6
:10155000000C014010B54FF480510A48FFF7A2FD7E
:1015600000F012F84FF400510648FFF79BFD00F021
:101570000BF84FF400510348FFF792FD00F004F818
:1015800010BD0000000C0140032000BF011EA0F1AF
:101590000102D0B2FAD1704708B501210C2000F049
:1015A0009BFD48208DF803004002ADF800000320A9
:1015B0008DF8020069460848FFF7DEFC48208DF8E8
:1015C00003004020ADF8000003208DF802006946BA
:1015D0000248FFF7D1FC08BD00080140000C0140A3
:1015E00008B501201023242200210090084600F0B5
:1015F0006BFC02201023252200210090184600F0E9
:1016000063FC03201023262200210090202000F0FC
:101610005BFC01201023272219460090002000F0D7
:1016200053FC02201023282219460090184600F08F
:101630004BFC032010232F2219460090202000F09D
:1016400043FC03201023302219460090104600F07E
:101650003BFC0120102304A220210090002000F078
:10166000F9FC00F05FFB08BD4C4541524E494E4726
:10167000000000001CB50020102304220146009049
:1016800000F022FC0020102305220146009018469D
:1016900000F01AFC002010230622014600902020B2
:1016A00000F012FC00201023072201460090302099
:1016B00000F00AFC0120102103460246CDE900108B
:1016C0001221002000F080FC012010232E22122184
:1016D0000090082000F05AFB012010230A2212215A
:1016E0000090112000F0F0FB012010230B221221AA
:1016F0000090212000F0E8FB012010230422122199
:101700000090312000F0E0FB01201023052212217F
:101710000090412000F0D8FB012010210346022256
:10172000CDE900102321002000F04EFC0120102301
:101730002E2223210090082000F028FB01201023F6
:10174000082223210090112000F0BEFB012010236D
:10175000092223210090212000F0B6FB0120102354
:10176000042223210090312000F0AEFB0120102341
:10177000052223210090412000F0A6FB00F0D2FAC0
:101780001CBD00001CB5002010230422014600905F
:10179000202000F099FB0020102305220146009034
:1017A000302000F091FB0120102103460246CDE9D4
:1017B00000101221002000F007FC012010232E222F
:1017C00012210090082000F0E1FA012010230C22E1
:1017D00012210090112000F077FB012010230E222F
:1017E00012210090212000F06FFB01201021034600
:1017F0000222CDE900102321002000F0E5FB0120AA
:1018000010232E2223210090082000F0BFFA01208F
:1018100010230D2223210090112000F055FB012000
:1018200010230E2223210090212000F04DFB33488D
:10183000007878BB002010230A220146009000F0B7
:1018400043FB002010230B2201460090184600F0B5
:101850003BFB012010230A2212210090312000F0CE
:1018600033FB012010230B2212210090412000F0B5
:101870002BFB012010230A2223210090312000F0AD
:1018800023FB012010230B2223210090412000F094
:101890001BFB2FE0FFE700201023082201460090E9
:1018A00000F012FB00201023092201460090184688
:1018B00000F00AFB012010230822122100903120A1
:1018C00000F002FB01201023092212210090412088
:1018D00000F0FAFA01201023082223210090312081
:1018E00000F0F2FA01201023092223210090412068
:1018F00000F0EAFA00F016FA1CBD00000400002017
:1019000008B53D48007880B9012010230A22002143
:101910000090202000F0D8FA012010230B22002193
:101920000090302000F0D0FA0FE0012010230822B0
:1019300000210090202000F0C7FA01201023092286
:1019400000210090302000F0BFFA2C48007880B9C8
:10195000012010230C2200210090084600F0B4FA68
:10196000012010230E2200210090184600F0ACFA4E
:101970000FE0012010230D2200210090084600F006
:10198000A3FA012010230E2200210090184600F037
:101990009BFA01201023112220210090512000F0F9
:1019A00093FA01201023122220210090612000F0E0
:1019B0008BFA012010232D2230210090512000F0BD
:1019C00083FA012010232E2230210090612000F0A4
:1019D0007BFA01201023132220210090712000F0B7
:1019E00073FA01201023132230210090712000F09F
:1019F0006BFA00F097F908BD0400002005000020F4
:101A000000BFFEE7704710B54FF4A06000F03AF851
:101A100010BD000070B5002100230F22C47804B36C
:101A2000154C246804F4E064C4F5E064210AC1F1B3
:101A30000403CA40447804FA03F184781440214333
:101A400009010E4C0678A155047804F01F05012405
:101A5000AC4005786D11AD0005F1E025C5F80041F9
:101A600009E0047804F01F050124AC40044D067819
:101A7000761145F8264070BD0CED00E000E400E072
:101A800080E100E002490143024A11607047000012
:101A90000000FA050CED00E070B500240CE0002514
:101AA00006E00020074901EBC5010855681CC5B2D6
:101AB000802DF6DB601CC4B2082CF0DB00F032F99C
:101AC00070BD0000400100202DE9FF4F84B0814629
:101AD0008A460020029083460698A0EB09040798E6
:101AE000A0EB0A06CDF80490CDF800A0002C01DD93
:101AF000012705E00CB9002702E04FF0FF376442F0
:101B0000002E02DD4FF0010806E016B94FF0000884
:101B100002E04FF0FF386642B44201DD254600E0A6
:101B20003546002003901DE0009AD1B2019AD0B250
:101B3000119A00F01FF8029820440290B3440298D2
:101B4000A84205DD0298401B02900198384401909C
:101B5000AB4504DDABEB050B0098404400900398C7
:101B6000401C0390691C03988842DDD308B0BDE88F
:101B7000F08F0000F0B514460B46CF1701EB5777F6
:101B8000C7F3C702CF1701EB5777FF10A1EBC707C9
:101B9000FEB20123B340DDB24CB1134B03EBC003E3
:101BA0009B5C2B43104F07EBC007BB541AE00E4B56
:101BB00003EBC0039B5CDB430B4F07EBC007BB543D
:101BC000094B03EBC0039B5C2B43074F07EBC0079C
:101BD000BB54054B03EBC0039B5CDB43024F07EB9D
:101BE000C007BB54F0BD00004001002008B5012132
:101BF000082000F071FA4FF44050ADF800000320C7
:101C00008DF8020010208DF8030069463E48FFF76A
:101C1000B3F94FF440513C48FFF744FAC82000F0B4
:101C2000EFFD0021AE2000F03AFA0021084600F056
:101C300036FA0021102000F032FA0021402000F096
:101C40002EFA0021812000F02AFA0021CF2000F096
:101C500026FA0021A12000F022FA0021C82000F07D
:101C60001EFA0021A62000F01AFA0021A82000F098
:101C700016FA00213F2000F012FA0021D32000F0D4
:101C80000EFA0021084600F00AFA0021D52000F0E3
:101C900006FA0021802000F002FA0021D92000F08D
:101CA000FEF90021F12000F0FAF90021DA2000F01D
:101CB000F6F90021122000F0F2F90021DB2000F0FB
:101CC000EEF90021402000F0EAF90021202000F088
:101CD000E6F90021022000F0E2F900218D2000F059
:101CE000DEF90021142000F0DAF90021A42000F030
:101CF000D6F90021A62000F0D2F9FFF7CDFE002191
:101D0000AF2000F0CCF908BD000C014010B5024630
:101D1000012000E050430B1EA1F10104E1B2F9D112
:101D200010BD000070B500242BE004F1B001C8B272
:101D3000002100F0B4F90021084600F0B0F90021BC
:101D4000102000F0ACF9FFF7D1FB782000F054FA36
:101D5000FFF700FC402000F04FFAFFF7FBFB0025E7
:101D600009E0094901EBC501085D00F045FAFFF7FC
:101D7000F1FB681CC5B2802DF3DBFFF7D5FB601CBF
:101D8000C4B2082CD1DB70BD400100202DE9FE4F0C
:101D90000746884692461C460197CDF80080082CDD
:101DA00002D14FF006091FE02046E31704EB5373FE
:101DB000DB1021464FEAE47C04EB5C7C4FEAEC0C40
:101DC000A4EBCC0CBCF1000F02D04FF0010C01E0F1
:101DD0004FF0000C6344224604EBD27C4FEA6C0CBB
:101DE00003FB0CF303F0FF09AAF12000C6B20025A3
:101DF0005EE0082C07D106EB46002F4901EB4000BE
:101E000010F805B01DE00C2C07D106EB46002B495D
:101E100001EB800010F805B013E0102C05D1284824
:101E200000EB061010F805B00BE0182C07D106EBFC
:101E3000C600244901EB800010F805B001E0BDE8C0
:101E4000FE8F002002901CE00BF0010028B14146FB
:101E500038460C9AFFF78EFE09E00C9808B901206D
:101E600000E00020024641463846FFF783FE4FEA75
:101E70006B0B08F1010000F0FF080298401CC0B293
:101E8000029002980828DFDB781CC7B2082C0BD020
:101E900004EBD4714A100199791A8A4204D1019F46
:101EA00000980830C0B20090DDF80080681CC5B210
:101EB0004D459EDB00BFC2E7CA370008F239000873
:101EC000663E0008564400082DE9FC4F0746884648
:101ED00016461C46BB46CDF804802046E21704EBAC
:101EE0005272D2102146E31704EB5373DB10A4EBBC
:101EF000C3030BB1012300E000231A4462430092A4
:101F0000002554E0102C05D12B4800EB461010F8AA
:101F100005A01BE0182C07D106EBC600274901EBF2
:101F2000C00010F805A011E0202C05D1244800EBDA
:101F3000C61010F805A009E0402C05D1214800EB9F
:101F4000462010F805A001E0BDE8FC8F4FF0000925
:101F50001CE00AF0010028B1414638460B9AFFF711
:101F600009FE09E00B9808B9012000E000200246B4
:101F700041463846FFF7FEFD4FEA6A0A08F10100C4
:101F800000F0FF0809F1010000F0FF09B9F1080FA6
:101F9000DFDB781CC7B2A7EB0B00A04204D15F4681
:101FA00001980830C0B20190DDF804806D1C0098E3
:101FB0008542A7D300BFC7E7B2510008D257000837
:101FC0001A5800089A5C00082DE9FF4F82B00646B7
:101FD00091461F46DDE90F4A4FF0000B082C01D156
:101FE0004FF0020B002530E0781B401EC1B20A20E2
:101FF000FFF78CFEB9FBF0F00A21B0FBF1F201FB18
:102000001208B8F1000F0ED104EBD4710BEB610193
:1020100001FB0561C8B223463022CDE900A4039933
:10202000FFF7B4FE0FE004EBD4710BEB610101FB91
:102030000561C8B208F13001CAB22346CDE900A457
:102040000399FFF7A3FE681CC5B2BD42CCDB06B006
:10205000BDE8F08F2DE9F84106460F4614461D46AF
:10206000DDF81C8013E0CDF8008022782B4639463D
:102070003046FFF78BFE082D02D1B01DC6B205E039
:10208000284605EBD07106EB6101CEB2641C2078C6
:10209000202802DB20787E28E5DDBDE8F88170B5D8
:1020A00005460C46FFF722FA782000F0A5F8FFF766
:1020B00051FA1CB1402000F09FF802E0002000F02F
:1020C0009BF8FFF747FA284600F096F8FFF742FA28
:1020D000FFF72AFA70BD704729B1064A9269024398
:1020E000044B9A6104E0034A92698243014B9A616E
:1020F000704700000010024030B50021002200248B
:1021000000232D4D6D6805F00C0121B1042905D087
:10211000082923D105E0294D056022E0274D0560FF
:102120001FE0254D6D6805F47012234D6D6805F4B0
:102130008034022505EB92421CB9214D55430560C0
:102140000BE01D4D6D6805F400351DB11C4D554368
:10215000056002E0194D5543056002E0174D05602A
:1021600000BF00BF144D6D6805F0F0010909154D61
:102170006B5C0568DD4045600F4D6D6805F4E061FE
:10218000090A104D6B5C4568DD4085600A4D6D683D
:1021900005F46051C90A0B4D6B5C4568DD40C560B4
:1021A000054D6D6805F44041890B074D6B5CC568B2
:1021B000B5FBF3F5056130BD0010024000127A0056
:1021C00000093D0036000020460000207047000056
:1021D00010B50848007810B9FFF74CFA08E0054838
:1021E0000078012802D1FFF7CDFA01E0FFF788FB64
:1021F00010BD00000300002070B5044600251FE05C
:1022000004F0800028B14FF480510F48FEF74AFFD8
:1022100004E04FF480510C48FEF742FFFFF7B4F999
:102220004FF400510848FEF73DFFFFF7ADF94FF4BA
:1022300000510548FEF734FF6006040E681CC5B265
:10224000082DDDDB70BD0000000C014010B500F072
:1022500001F810BD0CB500200190009033480068D3
:1022600040F480303149086000BF3048006800F415
:10227000003000900198401C0190009818B9019816
:10228000B0F5A06FF1D12948006800F4003010B11A
:102290000120009001E0002000900098012843D127
:1022A0002348006840F01000214908600846006893
:1022B00020F0030008600846006840F00200086053
:1022C0001A4840681949486008464068486008460E
:1022D000406840F4806048600846406820F47C1004
:1022E00048600846406840F4E810486008460068C6
:1022F00040F08070086000BF0C48006800F000707B
:102300000028F9D00948406820F0030007494860D8
:102310000846406840F00200486000BF034840683B
:1023200000F00C000828F9D10CBD0000001002409C
:102330000020024070B506460C461546FEF704FD27
:102340005420FEF7D3FCFEF747FD18B1FEF720FD41
:10235000012070BD3046FEF7C9FCFEF73DFD20466A
:10236000FEF7C4FCFEF738FD18B1FEF711FD0120A1
:10237000EFE72846FEF7BAFCFEF72EFD18B1FEF790
:1023800007FD0120E5E7FEF703FD0020E1E700007F
:1023900008B5012010230022182100901046FFF7F5
:1023A00093FD012010230246182100901846FFF7E4
:1023B0008BFD012010230222182100902020FFF71E
:1023C00083FD012010230322182100903020FFF705
:1023D0007BFD012010232B22182100904020FFF7C5
:1023E00073FD012010232C22182100905020FFF7AC
:1023F0006BFD0120102307A2182100906020FFF739
:1024000029FEFFF78FFC4FF47A7000F0F9F9FFF71F
:1024100043FB08BD56322E3000000000042808D1CE
:102420004FF0E021096941F004014FF0E022116111
:1024300007E04FF0E021096921F004014FF0E022AC
:1024400011617047704710B500F0B8F9FFF7CEFB87
:10245000FFF7A2F8FEF75AFAFFF7D5FA4FF4165035
:1024600000F02AFA00BFFEF72FFB0028FBD1142052
:1024700000F0C6F910BD000010B51348006840F028
:1024800001001149086008464068104908400E499B
:102490004860084600680E4908400B490860084635
:1024A000006820F4802008600846406820F4FE00A0
:1024B00048604FF41F008860FFF7C8FE4FF00060CF
:1024C0000449086010BD0000001002400000FFF841
:1024D000FFFFF6FE08ED00E010B501210B4800F00B
:1024E00020F888B10121094800F018F80848007860
:1024F000401C074908700846007806490988884248
:1025000002D101200449087010BD00000004004001
:10251000510000205200002050000020CA430282D7
:10252000704730B50246002000230024158A05EAD2
:102530000103958905EA010413B10CB1012000E003
:10254000002030BD08B5FFF7A7FA012010230822AC
:10255000182100902020FFF7B7FC0120102309224A
:10256000182100903020FFF7AFFC012010231E221D
:10257000182100904020FFF7A7FC012010231F2204
:10258000182100905020FFF79FFCFFF7CBFB08BD00
:1025900010B540F225511D4800F04AF810B31B4811
:1025A00000F002F9C4B21A48008800F40040C8B92B
:1025B0001748008800F4804060B10A2C03D0002046
:1025C0001349088020E01248008840F40040104978
:1025D000088019E00D2C06D10D48008840F4804099
:1025E0000B49088010E00A480088C0F30D00094933
:1025F0000C5407480088401C05490880084600889C
:10260000C72801DD0020088010BD0000003801400F
:10261000340000207800002021B1828942F4005269
:10262000828104E082894DF6FF731A4082817047EF
:1026300070B50246002400230025002040F66A16EB
:10264000B14200D100BFC1F3421501F01F030126C2
:1026500006FA03F3012D02D19689334006E0022DDC
:1026600002D1168A334001E0968A33400C120126CB
:1026700006FA04F41688344013B10CB1012000E0CE
:10268000002070BDF0B50346002400260025002080
:1026900040F66A17B94200D100BF1846C1F3421490
:1026A00001F01F06012707FA06F5012C01D10C30B5
:1026B00004E0022C01D1103000E014301AB1076898
:1026C0002F43076002E00768AF430760F0BD0000DA
:1026D0002DE9F04786B005460E460024A24600BF0D
:1026E000A1460027B08900B100BF2F462C8A4CF6C6
:1026F000FF700440F08804432C82AC894EF6F3103E
:102700000440B08831890843718908430443AC818F
:10271000AC8A4FF6FF400440B0890443AC8201A864
:10272000FFF7EAFC1F48874202D1DDF810A001E064
:10273000DDF80CA0A88900F4004040B10AEBCA0003
:1027400000EB0A1031684900B0FBF1F807E00AEB32
:10275000CA0000EB0A1031688900B0FBF1F8642070
:10276000B8FBF0F004012009642101FB1089A8895D
:1027700000F4004040B1322000EBC900B0FBF1F0A2
:1027800000F00700044308E0322000EB0910642148
:10279000B0FBF1F000F00F0004432C8106B0BDE85F
:1027A000F08700000038014001468888C0F3080027
:1027B000704700BFFEE700BF7047000010B56FF024
:1027C0000400FFF72BFE0A4800680A49B0FBF1F04D
:1027D000094908700846007800EB4001C1EBC010C1
:1027E0004FF6FF7101EAC0000449088010BD0000E7
:1027F0001800002000127A002C0000202E0000207B
:102800000146114A12884A434FF0E0235A610022E0
:102810009A611A46126942F001021A6100BF4FF034
:10282000E022106900F001021AB100F48032002A9F
:10283000F5D04FF0E022126922F001024FF0E023C0
:102840001A6100229A6170472E0000200146114A49
:1028500012784A434FF0E0235A6100229A611A46E7
:10286000126942F001021A6100BF4FF0E0221069C4
:1028700000F001021AB100F48032002AF5D04FF0C6
:10288000E022126922F001024FF0E0231A610022D7
:102890009A6170472C000020FFF7D5FDFFF778FD07
:1028A00009E0FEF7EDFAFEF72DFBFDF719FFFDF746
:1028B000E5FCFFF78DFCF4E710B586B00446012176
:1028C00044F20400FFF708FC4FF40070ADF8140068
:1028D00003208DF8160018208DF8170005A91C4854
:1028E000FEF74AFB4FF48060ADF8140004208DF829
:1028F000170005A91648FEF73FFB25208DF80000BC
:1029000003208DF801008DF8020001208DF80300EE
:102910006846FFF77FF801940020ADF80800ADF895
:102920000A00ADF80C00ADF810000C20ADF80E0058
:1029300001A90848FFF7CCFE012240F225510548C5
:10294000FFF7A0FE01210348FFF766FE06B010BDA9
:10295000000801400038014021F00042A2F160521D
:10296000B2F5801F01F0004328BFD2F17F6C0BD974
:102970005FEA001C43EAC20242EB507018BF704786
:1029800028BF20F001007047B2F5801FBCBF184679
:1029900070474FEA410C1CF5001F02D2084600F0B8
:1029A00068BE70B500F066FA00000089FFF7F6BF58
:1029B0004FF00040A0F580007047000010B591EA8C
:1029C000030F48BF83F0004300F1E682841A71EBE5
:1029D000030C05D2121943EB0C03001B61EB0C0135
:1029E000DFF824E14FEA1154A4EB135C1EEA430F15
:1029F00018BF9EEA445F73D023EA0E03DCF1200E79
:102A000021EA045143F4801332D322FA0CFE10EB76
:102A10000E0023FA0CFE41EB0E01CCF1200E03FA5E
:102A20000EFE10EB0E0051F10001B1F5801FCCF14C
:102A3000200E32D201EB045112FA0EF2BDE8104022
:102A400058BF7047401C38BF5FEA420218BF70474A
:102A5000002814BF20F0010041F100014FEA4103BA
:102A600013F5001F38BF7047A1F1C04100F050BA04
:102A7000012A43EB0302ACF1200CDCF11F0E32BF44
:102A80004FF0000E23FA0CF310EB030041EB04515E
:102A9000B4EB115FD0D0A1EB045101F580114908CE
:102AA0005FEA300001EB04510ED350F1000038BF53
:102AB00012FA0EFE08D1BDE81040C9E7401C38BF2D
:102AC0005FEA4202CAD1C3E7BDE810404FEA4103C2
:102AD00013F5001F38BF7047A1F1C04100F018BACC
:102AE0009EEA445F08D011EA5E0FBDE8104004BFC3
:102AF00001F0004100207047BDE8104070B500F0C3
:102B0000B9F900BF64FBBE3E0000E0FF491058BFAA
:102B1000C1F140415B1058BFC3F140438B42EFF31A
:102B2000008070472DE9C04130B4DFF8A0C23CEA14
:102B3000111418BF3CEA131400F0EC8081EA03057D
:102B40001CEA111444EAD57418BF1CEA131500F0EE
:102B5000C780A4EB05044FF0004545EAC12145EAD2
:102B6000C32341EA505143EA525304F17F7499421E
:102B700004F500344FEAC0204FEAC22208BF904259
:102B800000F09C804FEA13650FF24016765D4FEA25
:102B9000134506FB05F7C7F1807706FB07F74FEAF9
:102BA000D737A7FB03687642C8F58038A7FB06CE67
:102BB00038BFA8F1010807FB08E64FF0000EA6FB9E
:102BC000028CE6FB03CEDCF1000CCEF1004E38BFE8
:102BD000AEF1010EA6FB0C584FF000074FF00005B8
:102BE000E6FB0E87A1FB08C6A0FB07CE16EB0E0680
:102BF00045F10005E1FB076515F1E04E7EBFA4F548
:102C000080345FEA46066D4116F1800745F1000504
:102C10004FEA17274FEA066647EA0567A6F1DE4640
:102C2000B6F1805F4FEA15251FD9384624F0010C14
:102C300005EBC471BCF1FE6F01EB0C1102D8F0BCC6
:102C4000BDE8008124425CBF01F5801E9EEAC47F7E
:102C500002D4F0BCBDE80081244238D4F0BCA1F11C
:102C6000C041BDE8004100F053B94FEAD22242EA28
:102C700043524FEAD323A7FB02864FEAD02040EA13
:102C8000415007FB03661EEA0E0F4FEAD12105FBF8
:102C9000026658BFA6EB0056B6EB00564FEA520E3E
:102CA0004EEAC37E18EB0E0E56EB530EBDD518EB55
:102CB00002085E417F1C55F10005B6E74FF4801510
:102CC0004FF000074FF000064FF00008ADE7F0BCF2
:102CD0004FF0000001F1C04101F00041BDE800816A
:102CE00011EA0C1F0CEA131500D00CE013EA0C1FBC
:102CF00000F025804FF00000F0BC81EA030101F0F4
:102D00000041BDE80081F0BCBDE8004181EA03015B
:102D100000F0FEB8F0BCBDE8004170B500F0AAF8C4
:102D2000097EFC3E00F007B881EA03014FF0000085
:102D300001F00041704781EA030100F0E9B8F0BCFE
:102D4000BDE800414FF0000021497047FFFDFBF94D
:102D5000F7F5F4F2F0EEEDEBE9E8E6E4E3E1E0DECE
:102D6000DDDBDAD8D7D5D4D3D1D0CFCDCCCBCAC840
:102D7000C7C6C5C4C2C1C0BFBEBDBCBBBAB9B8B767
:102D8000B6B5B4B3B2B1B0AFAEADACABAAA9A8A85A
:102D9000A7A6A5A4A3A3A2A1A09F9F9E9D9C9C9B28
:102DA0009A999998979796959594939392919190D3
:102DB0008F8F8E8E8D8C8C8B8B8A89898888878764
:102DC0008685858484838382828181800000FF07D9
:102DD0000000F87FB0FA80F310FA03F10AD0C3F1D3
:102DE0001D0303F580634FEA41504FEA035202EBA3
:102DF000D12170474FF000007047000051EA030CEA
:102E000017D41CF5801F58BFBCF5801F00F1068049
:102E1000994218BF704708BF9042704707D711F515
:102E2000801F58BF13F5801F19D4994270478942FB
:102E300070471CF5801F08D5BCF5801FF7D58B4265
:102E400018BF704708BF824270474FF4001C1CEB4C
:102E5000410F38BF1CEB430F01D28B42704770B556
:102E600000F008F8922449004FF000514FF08053D1
:102E7000FFF74CBE0EF1020E2EF0030E5EF8046B4F
:102E8000364205D4012A43EB030515F5001F12D87D
:102E9000012841EB010C1CF5001F0CD80ED14FEAA4
:102EA000D17C15F5001F0CEB4C0C0CF1020C08BF8B
:102EB0004CEBD37C04E04FF0080C01E04FEAD37CEC
:102EC0000CEB4C0526FA05F606F00706B6F1040CE5
:102ED00006D20EEB860CBDE870404CF0010C60474A
:102EE000DFE80CF0090B02024FF000414FF0000048
:102EF000A1F5002170BD19461046012851EB0104CF
:102F000018BFD4F5001484BF002001F0004170BD4B
:102F10000808A0F500114FEA3101704753EA010C8F
:102F200017D41CF5801F58BFBCF5801F00F1068028
:102F30008B4218BF704708BF8242704707D713F50E
:102F4000801F58BF11F5801F19D48B4270479B42D8
:102F500070471CF5801F08D5BCF5801FF7D5994236
:102F600018BF704708BF904270474FF4001C1CEB1D
:102F7000430F38BF1CEB410F01D2994270470FB489
:102F80000CBC03BCFFF76BBF10B591EA030F48BF41
:102F900083F000433FF51AAD841A71EB030C07D29E
:102FA00012198CF0004C43EB0C03001B61EB0C017D
:102FB000DFF8A4E14FEA1154A4EB135C1EEA430FBF
:102FC00018BF9EEA445F00F0B08023EA6E035242CD
:102FD00021EA0451C3EB6E0338BF5B1EDCF1200E07
:102FE00025D322FA0CFE10EB0E0043FA0CFE41EB47
:102FF0000E01CCF1200E03FA0EFE10EB0E0051F183
:103000000001CCF1200E29D412FA0EF201EB04518A
:10301000BDE8104058BF7047401C1CBFB2F1004FC4
:10302000704700280CBF491C20F00100704712EBCC
:10303000020E43EB030218BF4FF0010E4EEA4202AC
:10304000ACF1200CDCF11E0E54D943FA0CFE10EB4F
:103050000E0051F1FF31CCF11E0ED5D50EF1010E4F
:1030600012FA0EFE404141EB010101EB445C5FEAC4
:103070005C5C10D910EBDE7001EB045138BFBEF17F
:10308000004FBDE8104018BF704700280CBF491C16
:1030900020F00100704730D24FEAD42C11F5001116
:1030A00024F400641BD0B1FA81F20B3AA41AA41ED6
:1030B000D2F12003914030FA03F31943904001EB21
:1030C000CC71002C01EB0451BDE81040A8BF704743
:1030D00001F1C0414FF0000001F000417047B0FA2B
:1030E00080F310FA03F100D110BDE41A173C480533
:1030F000C90AE4E701EB045110BD491001EB04518A
:10310000BDE810404FEA300002E04FF00001704788
:103110004A0008BF0042F8D0B2F5001F28BF704730
:1031200001F000414FF0000070479EEA445F07D075
:1031300011EA5E0FBDE8104004BF00210020704777
:10314000BDE8104070B5FFF795FE00BF40DFF63ECA
:1031500083F00041104670470000E0FF43004FEA53
:10316000D30C4FEA3C0C43401FBF40070CF16051A9
:1031700013F0FE4F70471CF0006F03D100200CF0DD
:10318000004170470CF0004343EA507010B540EA2C
:10319000CC0000F028FA00BF000000924FEA0001C6
:1031A000FFF7B6BE4FF000414FF00000A1F500213F
:1031B0007047000090EA010F48BF81F0004100F124
:1031C0009682421A3CBF801A89184FEAD0524FF0BB
:1031D0007F4C1CEA410FA2EBD15318BF9CEA026F4F
:1031E00000F03B804FF0004C4CEA00204CEA0121FB
:1031F00021FA03FC10EB0C0C1ED202F1FF325FEA45
:103200001C2040EBC25038BF70471CF07F0F4FEAC4
:10321000400C18BFBCF17F4F38BF7047C3F120038B
:10322000994008BF20F00100BCF17F4F38BF7047C4
:10323000A0F1C04000F01DBA4FEA3C00000A40EB8C
:10324000C25028BF1CF0FF0F4FEA400CE6D018BF59
:10325000BCF17F4F38BF7047EAE79CEA026F05D0A8
:1032600010EA5C0F08BF00F00040704710B500F096
:10327000BAF900BF64FBBE3E401058BFC0F14040E9
:10328000491058BFC1F140418142EFF300807047BF
:103290004FF47F0C1CEAD0121EBF1CEAD11392EA35
:1032A0000C0F93EA0C0F00F0858090EA010F48BFE5
:1032B00042F4807240F4000C41F400002CF07F4195
:1032C00020F07F4000B58142A2EB03020FF2081C00
:1032D000ACEB504EC0F100009EF800E04FEA4E0EFD
:1032E00000FB0EFC38BF49004FEA2C1C02F5FA0225
:1032F0000CFB0EF34FEACE1E4FEA112C4FEAC12110
:103300000EEB635E42EB22420EFB0CFC4FEA1C53B9
:1033100000FB03114FEA112C4FEA01310EFB0CFCAC
:103320004FEADC4C00FB0C11C14228BF09184CEBE2
:1033300003335DF804EB10EB410143EBC250B2F5EF
:103340007C0F38BF704729D512F0F00F1CBF00F179
:10335000C04000F0004070470081828384858687EA
:1033600088898B8C8D8E8F919293959697999A9C44
:103370009D9FA0A2A3A5A7A8AAACAEB0B2B3B5B7B3
:10338000B9BCBEC0C2C5C7C9CCCED1D4D7D9DCDF89
:10339000E2E6E9ECF0F3F7FAFE0000004FEA400C39
:1033A0000CF1807CBCF17E4F28BF7047B0F1C0406B
:1033B00000F05FB990EA010F0CEAD11348BF42F464
:1033C0008072624538BF634507D213F47F0F16D071
:1033D00080EA010000F00040704710B500F003F9EA
:1033E000097EFC3E00F005B880EA010000F00040D4
:1033F000704780EA010000F0004000F03AB912F492
:103400007F0F04BF0248704780EA010000F031B925
:103410000000C07F50EA010C00F113801CF5000F82
:1034200058BFBCF5000F01D48842704707D710F58C
:10343000000F58BF11F5000F15D48842704789421C
:1034400070471CF5000F04D5BCF5000FF7D581427D
:1034500070474FF0807C1CEB400F38BF1CEB410FD6
:1034600001D28142704710B500F0BDF892244900A6
:103470004FF000504FF08051FFF7FEBE50EA010CB4
:1034800000F113801CF5000F58BFBCF5000F01D4EC
:103490008842704707D710F5000F58BF11F5000F8D
:1034A00015D488427047894270471CF5000F04D537
:1034B000BCF5000FF7D5814270474FF0807C1CEBC4
:1034C000400F38BF1CEB410F01D28142704710B54D
:1034D00000F089F8922449004FF000504FF08051DD
:1034E000FFF7CABE4FF47F0C1CEAD0121EBF1CEAC5
:1034F000D11392EA0C0F93EA0C0F00F0478090EA88
:10350000010F48BF42F480724FF0004C4CEA00209B
:103510004CEA012102EB0302A0FB0113A2F5000219
:10352000002918BF43F001035B0028BF4FEA3303B3
:1035300042EB22425FEA132C4CEBC2502EBFBCEB95
:10354000436FB2F57C0F70474FEA036CBCF1004F3C
:1035500008BF20F00100B2F57C0F38BF70470BD5D3
:1035600082F0FF0212F5803FC8BF704700F1C040F3
:10357000D8BF00F00040704700F5000C5FEA4C0C2B
:1035800048BF7047B0F1C04000F073B890EA010F37
:103590000CEAD11348BF42F48072624538BF6345DC
:1035A00004D280EA010000F00040704710B500F03E
:1035B0001AF800BF8900013E00F007B800F009B812
:1035C0005FEA410C5FEA1C6C08D080EA010000F061
:1035D00050B85FEA400C5FEA1C6CF6D14FF0004037
:1035E000A0F5800070470EF1020E2EF0030E5EF87B
:1035F000044B244204D44FEA4102B2F17F4F11D868
:103600004FEA4003B3F17F4F0CD80ED14FEAD07C84
:10361000B2F17F4F0CEB4C0C0CF1020C08BF4CEBE1
:10362000D17C04E04FF0080C01E04FEAD17C0CEBB8
:103630004C0324FA03F404F00704B4F1040C06D29A
:103640000EEB840CBDE810404CF0010C6047DFE845
:103650000CF0070802024FF00040A0F5800010BDFA
:103660000846420018BFD2F1807288BF00F00040C7
:1036700010BDFF2141EAD050C005704751EA000C4F
:1036800000F113801CF5000F58BFBCF5000F01D4EA
:103690008142704707D711F5000F58BF10F5000F92
:1036A00015D481427047894270471CF5000F04D53C
:1036B000BCF5000FF7D5884270474FF0807C1CEBBB
:1036C000410F38BF1CEB400F01D28842704780EA9F
:1036D000010081EA000180EA0100FFF7F8BE000066
:1036E00090EA010F48BF81F000413FF56AAD421AF0
:1036F00004D882F00042A0EB020011444FEAD052FD
:103700004FF07F4C1CEA410FA2EBD15318BF9CEA4B
:10371000026F4AD04FF0004C4CEA00204CEA0121E5
:1037200021FA03FCB0EB0C0C0FD412F0FE0F36D0D4
:103730005FEA4C001DD5001240EBC25038BF704705
:103740001CF03F0F18BF70470BE0A2F101025FEAC7
:103750001C2040EBC25038BF70471CF07F0F18BFD1
:103760007047C3F12003994014BF401E20F00100B0
:10377000704780084FEA122308BF7047B0FA80FCF8
:10378000A2EB0C02CCF1280C60FA0CF093EA122F99
:1037900004BF00EBC25070474FEAC3707047130A72
:1037A0005FEADC1008BF7047F6E79CEA026F04D0BE
:1037B00010EA5C0F08BF0020704710B5FFF713FF39
:1037C00040DFF63E81F0004070470000000000003E
:1037D0000000002F000000000700070000147F1405
:1037E0007F1400242A7F2A12006264081323003603
:1037F0004955225000000503000000001C22410032
:10380000000041221C000014083E08140008083E75
:103810000808000000A06000000808080808000070
:1038200060600000002010080402003E5149453E3F
:103830000000427F4000004261514946002141455D
:103840004B31001814127F10002745454539003CC4
:103850004A49493000017109050300364949493692
:1038600000064949291E0000363600000000563681
:103870000000000814224100001414141414000065
:103880004122140800020151090600324959513EF3
:10389000007C1211127C007F49494936003E4141AB
:1038A0004122007F4141221C007F49494941007F5C
:1038B00009090901003E4149497A007F0808087F4B
:1038C0000000417F4100002040413F01007F08147B
:1038D0002241007F40404040007F020C027F007F79
:1038E0000408107F003E4141413E007F090909065E
:1038F000003E4151215E007F091929460046494991
:1039000049310001017F0101003F4040403F001F5D
:103910002040201F003F4038403F006314081463DC
:1039200000070870080700615149454300007F41C6
:10393000410000552A552A55000041417F000004EE
:103940000201020400404040404000000102040027
:10395000002054545478007F48444438003844448C
:10396000442000384444487F003854545418000818
:103970007E0901020018A4A4A47C007F0804047836
:103980000000447D4000004080847D00007F1028BE
:1039900044000000417F4000007C04180478007C53
:1039A0000804047800384444443800FC24242418D3
:1039B0000018242418FC007C08040408004854540F
:1039C000542000043F444020003C4040207C001C28
:1039D0002040201C003C4030403C0044281028443B
:1039E000001CA0A0A07C004464544C441414141483
:1039F000141400000000000000000000000000009F
:103A0000FC000000000002000000000C020C02009C
:103A100000000000000090D0BCD0BC900003000368
:103A200000001824FE448C00030207020100182441
:103A3000D8B04C80000300010201C038E438E00037
:103A4000010202010202080600000000000000005E
:103A50000000000000F8040200000001020400025F
:103A600004F800000004020100009060F86090007B
:103A70000000010000002020FC20200000000100C8
:103A800000000000000000000806000000002020E8
:103A900020202000000000000000000000000000C6
:103AA0000002000000000080601C0200040300000F
:103AB0000000F8040404F8000102020201000008FA
:103AC000FC000000000203020000188444241800D7
:103AD00003020202020008042424D80001020202A8
:103AE000010040B088FC80000000000302003C247C
:103AF0002424C400010202020100F824242CC00086
:103B00000102020201000C04E41C04000000030096
:103B10000000D8242424D800010202020100384405
:103B20004444F800000302020100000010000000FD
:103B3000000002000000000020000000000006005D
:103B40000000002050880402000000000102909054
:103B500090909000000000000000000204885020B7
:103B60000002010000001804C42418000000020034
:103B70000000F804E494F80001020202020000E0F0
:103B80009CF0800002030000030204FC2424D800FF
:103B9000020302020100F80404040C000102020204
:103BA000010004FC0404F80002030202010004FC0A
:103BB00024740C0002030202030004FC24740C00B1
:103BC000020302000000F0080444CC40000102029D
:103BD000010004FC2020FC04020300000302040492
:103BE000FC040400020203020200000404FC0404BA
:103BF00006040403000004FC24D00C0402030200A9
:103C0000030204FC04000000020302020203FC3C65
:103C1000C03CFC0003000300030004FC30C4FC04AF
:103C2000020302000300F8040404F8000102020287
:103C3000010004FC24241800020302000000F884A0
:103C40008404F80001020207050004FC24649800C3
:103C5000020302000302182424448C00030202021F
:103C600001000C04FC040C0000020302000004FC30
:103C70000000FC04000102020100047C80E01C043E
:103C80000000030000001CE03CE01C0000030003F7
:103C90000000049C609C0400020300030200041C5A
:103CA000E01C04000002030200000C84641C0400F9
:103CB0000203020203000000FE02020000000704EB
:103CC0000400000E30C000000000000102000002ED
:103CD00002FE0000000404070000000402040000CB
:103CE00000000000000000000000000008080808B4
:103CF0000808000002000000000000000000004072
:103D0000A0A0C00000010202030204FC2020C000A9
:103D100000030202010000C0202060000001020236
:103D2000020000C02024FC0000010202030200C0C7
:103D3000A0A0C0000001020202000020F824240418
:103D40000002030202000040A0A0602000070A0A4F
:103D50000A0404FC2020C000020302000302002029
:103D6000E4000000000203020000000020E4000064
:103D700008080807000004FC80E02020020302007D
:103D800003020404FC000000020203020200E0201F
:103D9000E020C00003000300030020E02020C0005A
:103DA00002030200030200C02020C0000001020242
:103DB000010020E02020C000080F0A02010000C01E
:103DC0002020E0000001020A0F0820E0402020002F
:103DD0000203020000000060A0A020000002020216
:103DE00003000020F820000000000102020020E093
:103DF0000020E00000010202030220E02080602099
:103E00000000030100006080E08060000003000308
:103E1000000020608060200002030003020020E018
:103E2000208060200808070100000020A06020001A
:103E3000000203020200000020DE02000000000772
:103E40000400000000FF00000000000F000000025E
:103E5000DE2000000004070000000201020404024A
:103E60000000000000000000000000000000000052
:103E7000000000000000000000F80000000000004A
:103E800000333000000000100C06100C060000008B
:103E900000000000000040C07840C0784000043FAF
:103EA00004043F040400007088FC0830000000187F
:103EB00020FF211E0000F008F000E01800000021A3
:103EC0001C031E211E0000F00888700000001E2147
:103ED00023241927211010160E00000000000000F6
:103EE000000000000000000000E0180402000000D4
:103EF00000071820400000020418E0000000004005
:103F0000201807000000404080F08040400002027E
:103F1000010F01020200000000F00000000001019A
:103F2000011F01010100000000000000000080B03E
:103F30007000000000000000000000000000000110
:103F4000010101010101000000000000000000303B
:103F500030000000000000000000806018040060D5
:103F600018060100000000E010080810E000000F33
:103F7000102020100F00001010F80000000000209A
:103F8000203F2020000000700808088870000030E2
:103F9000282422213000003008888848300000188A
:103FA000202020110E000000C02010F800000007A3
:103FB0000424243F240000F8088888080800001919
:103FC000212020110E0000E0108888180000000F4A
:103FD000112020110E0000380808C8380800000021
:103FE000003F000000000070880808887000001C76
:103FF000222121221C0000E010080810E00000002F
:10400000312222110F00000000C0C000000000009B
:1040100000303000000000000080000000000000C0
:1040200080600000000000008040201008000001B7
:10403000020408102000404040404040400004047A
:104040000404040404000008102040800000002044
:10405000100804020100007048080808F000000081
:10406000003036010000C030C828E810E000071812
:10407000272423140B000000C038E0000000203C7F
:1040800023020227382008F8888888700000203F23
:10409000202020110E00C03008080808380007183A
:1040A00020202010080008F808080810E000203F31
:1040B000202020100F0008F88888E8081000203F12
:1040C00020202320180008F88888E8081000203FE6
:1040D000200003000000C03008080838000007185E
:1040E0002020221E020008F808000008F808203FDF
:1040F000210101213F20000808F8080800000020E5
:10410000203F2020000000000808F8080800C080B8
:1041100080807F00000008F888C028180800203F31
:1041200020012638200008F8080000000000203F89
:1041300020202020300008F8F800F8F80800203F80
:10414000003F003F200008F830C00008F808203F7A
:10415000200007183F00E01008080810E0000F10CA
:10416000202020100F0008F808080808F000203F61
:10417000210101010000E01008080810E0000F18FC
:10418000242438504F0008F8888888887000203F21
:104190002000030C30200070880808083800003820
:1041A000202121221C00180808F808081800000027
:1041B000203F2000000008F808000008F808001F51
:1041C000202020201F000878880000C83808000040
:1041D00007380E010000F80800F80008F800033C5A
:1041E0000700073C03000818688080681808203022
:1041F0002C03032C30200838C800C8380800000001
:10420000203F2000000010080808C83808002038A7
:10421000262120201800000000FE020202000000FB
:10422000007F40404000000C30C000000000000053
:1042300000010638C00000020202FE00000000403B
:1042400040407F0000000000040202020400000061
:10425000000000000000000000000000000080805E
:104260008080808080800002020400000000000046
:104270000000000000000000808080800000001925
:10428000242222223F2008F8008080000000003F06
:10429000112020110E000000008080800000000E20
:1042A000112020201100000000808088F800000EFE
:1042B000112020103F200000808080800000001F1F
:1042C000222222221300008080F088888818002093
:1042D000203F202000000000808080808000006B54
:1042E00094949493600008F8008080800000203F40
:1042F000210000203F20008098980000000000204E
:10430000203F20200000000000809898000000C09E
:104310008080807F000008F8000080808000203FBF
:1043200024022D302000000808F8000000000020C2
:10433000203F202000008080808080808000203FFF
:1043400020003F20003F8080008080800000203FD0
:10435000210000203F200000808080800000001F9E
:10436000202020201F00808000808000000080FF2F
:10437000A12020110E000000008080808000000E2F
:10438000112020A0FF80808080008080800020207D
:104390003F212000010000008080808080000033E9
:1043A000242424241900008080E080800000000084
:1043B000001F202000008080000000808000001F7F
:1043C000202020103F20808080000080808000011D
:1043D0000E300806010080800080008080800F3051
:1043E0000C030C300F0000808000808080000020D3
:1043F000312E0E31200080808000008080808081FE
:104400008E7018060100008080808080800000216E
:10441000302C2221300000000000807C02020000CD
:104420000000003F404000000000FF0000000000CE
:104430000000FF0000000002027C8000000000403D
:10444000403F0000000000060101020204040000D9
:10445000000000000000000000000000000000005C
:10446000000000000000000000000000000000004C
:10447000000000000000000000000000000000F04C
:10448000F0F0000000000000000000017F010000CB
:10449000000000000000001C1C1C000000000000C8
:1044A0008060301C8C60301C0C000000000000009C
:1044B00000000000000000000000000000000000FC
:1044C0000000000000E00000000000E000000086A6
:1044D000E69F86868686E69F860000011F01010111
:1044E00001011F010100000080C06020F820E0C031
:1044F0000000000003070C18FF70E18100000000BD
:10450000070F10107F100F070000806020608000F0
:104510000000E02000000F3020309F70DC371030AA
:10452000C0000000100E030007181018070000005C
:10453000C02020E0C0000000000080E01F38E887B5
:1045400003C43C040000070F1810100B070D1010D7
:10455000080000808C4C38000000000000000000C3
:10456000000000000000000000000000000000004B
:1045700000000000000000000000000080E03008A3
:1045800004000000000000FEFF0100000000000029
:1045900000000000030F1820400000040830E080F5
:1045A0000000000000000000000001FFFE0000000D
:1045B0000000004020180F03000000000000000071
:1045C00000000000C00000000000004266663C18C9
:1045D000FF183C6666420000000000000300000077
:1045E000000000000000000080000000000000103B
:1045F00010101010FF10101010100000000000002C
:1046000003000000000000000000000000000000A7
:10461000000000000000000000000000000000801A
:104620008C4C38000000000000000000000000007A
:1046300000000000000000101010101010101010EA
:10464000100000000000000000000000000000005A
:10465000000000000000000000000000000000005A
:1046600000000000000000001C1C1C0000000000F6
:1046700000000000000000000000E0380C00000016
:10468000000080701C03000000000060380E010074
:10469000000000000000000080C060202060C0809A
:1046A000000000FEFF010000000001FFFE0000010D
:1046B000070E181010180E0701000000808080C03F
:1046C000E000000000000000000000FFFF0000000C
:1046D000000000001010101F1F10101000000080BC
:1046E000402020202060C0800000000303008040A4
:1046F00020381F070000001C1A1918181818181F56
:1047000000000080C020202060C080000000000366
:1047100003001010182FE780000000070F10101082
:1047200010180F070000000000000000C0E0F000BB
:10473000000000C0B088868180FFFF8080000000FC
:1047400000000010101F1F1010000000E0606060EB
:1047500060606060000000003F1008080818F0E08A
:10476000000000070B101010101C0F0300000000C9
:1047700080C040202020E0C0000000FCFF21100885
:10478000080818F0E0000001070C18101010080FBE
:1047900003000000C0E06060606060E06000000056
:1047A00003000000E0180700000000000000001FE8
:1047B0001F00000000000080C0602020202060C09A
:1047C00080000087EF2C1818303068CF8300000776
:1047D0000F0810101010180F07000000C0C0202094
:1047E0002020C0800000001F3F604040402010FF9C
:1047F000FE0000000C1C101010080F030000000049
:104800000000000000000000000000000000000E9A
:104810000E0E0000000000000000001C1C1C000028
:104820000000000000000000000000000000000088
:104830000000000C0C000000000000000000005808
:104840003800000000000000000000000080402050
:104850001000000010284482010000000000000049
:104860000000000001020408100000000000000029
:104870000000000000000084848484848484848494
:1048800084000000000000000000000000000000A4
:104890001020408000000000000000000000000028
:1048A00001824428100000001008040201000000EA
:1048B000000000C020201010101030E0C0000003E5
:1048C000030000F010080C070300000000001C1C8F
:1048D0001C0000000000000000C0406020202040BC
:1048E000C00000FCFF01F00E03C1FE03807F000149
:1048F000070E08111110110904020000000080E0E9
:10490000E000000000000000807C4340477FF8800A
:10491000000010181F1000000000131F1C1020E0E2
:10492000E02020202060C080000000FFFF10101059
:1049300010182FE78000101F1F1010101010180FF4
:104940000700000080C0402020202060E00000FC24
:10495000FF0100000000000001000001070E181018
:1049600010100804030020E0E02020202040C08038
:10497000000000FFFF000000000001FFFE00101F0C
:104980001F10101018080E07010020E0E020202062
:1049900020202060800000FFFF101010107C00001D
:1049A0000000101F1F10101010101018060020E03B
:1049B000E020202020206060800000FFFF10101009
:1049C000107C00000100101F1F10000000000000FC
:1049D0000000000080C06020202040E0000000FCBB
:1049E000FF0100004040C0C140400001070E181008
:1049F00010100F0F000020E0E0200000000020E079
:104A0000E02000FFFF101010101010FFFF00101F1B
:104A10001F1000000000101F1F100000202020E0C9
:104A2000E020202000000000000000FFFF00000048
:104A3000000000001010101F1F10101000000000D8
:104A40000000202020E0E0202020000000000000E6
:104A500000FFFF0000000060E0808080C07F3F001A
:104A6000000020E0E020000020A06020200000FFE7
:104A7000FF30187CE3C000000000101F1F10000072
:104A800001131F1C181020E0E020000000000000AF
:104A9000000000FFFF000000000000000000101FE9
:104AA0001F10101010101018060020E0E0E00000A9
:104AB0000000E0E0E02000FF013FFEC0E01E01FF3B
:104AC000FF00101F1000031F0300101F1F1020E025
:104AD000E0C0000000000020E02000FF0003071CF1
:104AE00078E08000FF00101F100000000000030F9E
:104AF0001F00000080C060202060C080000000FE19
:104B0000FF010000000000FFFE000001070E18106A
:104B100010180C07010020E0E0202020202060C0B9
:104B2000800000FFFF2020202020301F0F00101FDA
:104B30001F100000000000000000000080C0602086
:104B40002060C080000000FEFF010000000000FFA8
:104B5000FE000001070E1111133C7C67210020E0CC
:104B6000E0202020202060C0800000FFFF101030D7
:104B7000F0D0080F0700101F1F10000000030F1CCB
:104B800010100080C060202020204040E00000077E
:104B90000F0C1818303060E08100001F0C08101056
:104BA0001010180F07008060202020E0E020202057
:104BB00060800100000000FFFF0000000001000015
:104BC0000000101F1F100000000020E0E020000087
:104BD00000000020E02000FFFF00000000000000B7
:104BE000FF0000070F1810101010100807002060B9
:104BF000E0E02000000020E060200000077FF88057
:104C000000807C03000000000000071F1C0700005C
:104C1000000020E0E02000E0E0200020E02000078D
:104C2000FFF8E01FFFFCE01F00000000031F03006F
:104C3000011F03000000002060E0A0000020E060F1
:104C40002000000000038F7CF8C601000000001067
:104C5000181E130001171F1810002060E0E020004C
:104C6000000020E06020000001073EF8E018070087
:104C7000000000000010101F1F1010000000008036
:104C80006020202020A0E0E0200000000000C0F014
:104C90003E0F0300000000101C1F1710101010180A
:104CA00006000000000000FC0404040404000000EE
:104CB000000000FF00000000000000000000007F76
:104CC000404040404000000010E0000000000000B4
:104CD000000000000000031C6080000000000000D5
:104CE0000000000000030C708000000004040404B5
:104CF00004FC0000000000000000000000FF0000B5
:104D00000000000040404040407F000000000000E4
:104D10000010080C040C0810000000000000000047
:104D20000000000000000000000000000000000083
:104D30000000000000000000000000000000000073
:104D40000000000000000000000080808080808063
:104D5000808080808080000000040408080000003B
:104D60000000000000000000000000000000000043
:104D70000000000000000000000000000000000033
:104D8000000000000000000098D844642424FCF8CF
:104D90000000000F1F18101010081F1F101800200F
:104DA000E0F000000000000000000000FFFF180815
:104DB00004040CF8F00000001F0F18101010180F5A
:104DC000030000000000000000000000000000E000
:104DD000F8180404043C3800000000030F0C101005
:104DE0001010080600000000000000000020E0F0A5
:104DF000000000E0F81C04040408FFFF00000003AA
:104E00000F18101010081F0F08000000000000000D
:104E10000000000000000000E0F8484444444C78E2
:104E200070000000030F0C181010100804000000A0
:104E3000000080C0602020E0C00000040404FFFFE8
:104E4000040404040000000010101F1F10101000C4
:104E50000000000000000000000000000000000052
:104E600070F88C04048CF874040C007076CF8D8D6F
:104E70008D89C87870000020E0F00000000000007C
:104E800000000000FFFF08040404FCF8000000100C
:104E90001F1F100000101F1F100000000000006006
:104EA0006000000000000000040404FCFC0000009E
:104EB000000000001010101F1F1010100000000054
:104EC000000000000060600000000000000004041A
:104ED00004FCFC0000000000C0C08080C07F3F00D8
:104EE00000000020E0F000000000000000000000D2
:104EF000FFFF80C0F41C0404000000101F1F1100FD
:104F0000031F1C1010000000202020E0F000000013
:104F100000000000000000FFFF0000000000000093
:104F20001010101F1F1010100000000000000000E3
:104F300000000000000004FCFC0804FCFC0804FC69
:104F4000FC00101F1F10001F1F10001F1F1000006B
:104F5000000000000000000000000004FCFC080845
:104F60000404FCF8000000101F1F100000101F1F99
:104F7000100000000000000000000000000000E041
:104F8000F0180C04040C18F0E00000030F0C1010D3
:104F900010100C0F030000000000000000000000D3
:104FA00000000004FCFC080404040CF8F00000807D
:104FB000FFFF889010101C0F03000000000000008D
:104FC00000000000000000E0F81C04040408F8FCE5
:104FD000000000030F1810109088FFFF80000000F1
:104FE00000000000000000000000040404FCFC10AD
:104FF0000804040C0C001010101F1F1010100000EB
:1050000000000000000000000000000000000000A0
:105010003078CCC48484840C1C0000001E1810104E
:105020001011190F06000000000000C00000000071
:10503000000000040404FFFF04040400000000005A
:1050400000000F1F1010100C0000000000000000F6
:105050000000000000000004FCFE00000004FCFE54
:10506000000000000F1F181010081F0F080000009C
:105070000000000000000000000000040C3CFCC424
:105080000000C43C0C0400000000010F1E0E0100D3
:105090000000000000000000000000000000043CD0
:1050A000FCC400E47CFC84807C040000071F070033
:1050B00000071F07000000000000000000000000C3
:1050C00000000004041C7CE4C0341C040400001034
:1050D000101C1601131F1C18100000000000000017
:1050E00000000000000000040C3CFCC400C43C04B0
:1050F00004000000C080C1370E0100000000000065
:105100000000000000000000000000001C0404C4B7
:10511000F47C1C0400000000101C1F171110101854
:105120000E0000000000000000F80C040000000069
:105130000000001028EF0000000000000000000048
:10514000003F60400000000000000000FF00000081
:105150000000000000000000FF0000000000000050
:1051600000000000FF00000000000000040CF80038
:1051700000000000000000000000EF281000000008
:105180000000000040603F00000000000000001828
:105190000602020408102020300800000000000071
:1051A00000000000000000000000000000000000FF
:1051B000000000002424242424FC22222223220094
:1051C0000000020202020242827F02020202020286
:1051D000020000444424FF140024A47F8404FC0043
:1051E000C0000088894A29180E0A094888483801F1
:1051F0000300404042CC000000FC0404040404FC12
:1052000000000000003F108840231901010911230C
:10521000C000003E22E22222223E0000F80000FFF1
:1052200000008141310F4181413F00000F40807FEC
:1052300000001010D0FF9014E4AFA4A4A4AFE404C5
:105240000000040300FF00894B2A1A0E1A2A4B881B
:105250008000101090909090901010FF1010111678
:105260001000002060203F10101000030C102040A0
:10527000F800404042CC00504EC8487FC8484840E3
:1052800000000040201F20504C4340404F50505CD5
:1052900040001010FF100082864A52A2524A8680B7
:1052A000800042827F010010121212FF12121210AF
:1052B0000000404042CC000000FF0000FE0000FF64
:1052C00000000000003F1088601F00003F0000FF4A
:1052D00000002030AC633004A4643C27E4040404E0
:1052E0000000226722121220110D41817F01050961
:1052F000300000222C2020FF20282600F80000FF8C
:105300000000028242221A07020202020F40807F3E
:10531000000000020CC000080808FF080808F80098
:10532000000002027F804121110D030D11214181F6
:10533000810040221408F402445454547F545454BD
:105340004400084482413F0000FF15151555957F24
:105350000000202020FF202214901000F80000FF01
:105360000000404020130C142241F8000F40807FC1
:105370000000002028AA6C28382FA8A8ECAA282012
:105380000000020211151555957F14141410110216
:105390000200101010FF9020988888E98E8888A855
:1053A00098000242817F000080844B2810284780AB
:1053B00000004030EF242480E49C105454FF547CBF
:1053C000100001017F21512618274445455F4545BE
:1053D000440080828282FE8282828282FE82828277
:1053E0008000008040300F0000000000FF0000003F
:1053F00000001010F01F10F00040E05847405060CF
:10540000C0004022150816210000FE42424242FE22
:10541000000000000080C0E0808080808080FCFC74
:10542000FC0000000103070F03030303030303034E
:10543000030002020202C2B28E8282828282820251
:10544000020008040201FF40404040404040FF008D
:1054500000000000106004180000FF0000000000C1
:10546000000081814141211109070105091121C174
:1054700001000202FAAAABAAFA0202F20302FA023D
:10548000020000888B48281A0B080848884A3B000D
:105490000000000004040404FC0404040404FC00F0
:1054A00000000080402018060100004080403F00BE
:1054B0000000080888C8A8988FE888888888880825
:1054C00008000201003F000000FF000010201F0044
:1054D00000004042CC0000445454547F545454447F
:1054E000400000007F201000FF15151555957F0026
:1054F000000000007C40404040FF40404040FC0035
:105500000000007C40404040407F4040404040FC24
:10551000000040404242424242C242424242424075
:105520004000201008060040807F000000020408B0
:10553000300000002424242424FC222222232200E0
:105540000000020202020242827F02020202020202
:10555000020000444424FF140024A47F8404FC00BF
:10556000C0000088894A29180E0A0948884838016D
:105570000300100C042424242526242424240414A9
:105580000C0000818141310F0101017F818181F196
:1055900000000000F8888888880808FF08090AC801
:1055A000080080601F0010201F804021161826412F
:1055B000F800048484FC848400040484E41C8404CF
:1055C00004002060201F101004020100FF000001F1
:1055D00006001010FF101020A4ACB5A6B4ACA42097
:1055E000200010301F0888804F3A0A0A7A8A8F807C
:1055F000E0001010D0FF905020504C434C50204001
:105600004000040300FF00414458414E60584740A9
:1056100040001060028C00FE02F202FE00F800FF63
:10562000000004047E018047300F10270047807F70
:1056300000004030119690909196909098141350DD
:105640003000040404040444847E060504040404B5
:105650000400000202021222C20202020202FE0042
:1056600000000008180804040402024181403F00C1
:1056700000000000F010101010FF10101010F000CB
:10568000000000000F04040404FF040404040F00DD
:1056900000004042CC0000445454547F54545444BD
:1056A000400000007F201000FF15151555957F0064
:1056B0000000804020180F88780808F8080808F8CB
:1056C0000000001008844221100806014080403F7D
:1056D000000008080CEBAAAAAAAFAAAAAAEA08081E
:1056E000080000222A2A2AFF000000FF2A2A2A2274
:1056F0000000404042CC000000FC242424E223228D
:1057000020000040201F20504C434040405F40405C
:10571000400040422410FF00844444447F444444F9
:105720000400222212120AFE42270A1222324A42A0
:105730004200001715D55557557D555755D51517A6
:1057400000004040407F555555555555557F4040C8
:105750004000404042CC0000FC24A4242222A3624A
:1057600000000040201F20584750484542454850FF
:1057700040000000FE0202F2121212F20202FE00CB
:10578000000000007F2020272424242720207F00E1
:1057900000002424A4FE2322001008946724940C03
:1057A0000000080601FF0106008989444A33120AF5
:1057B00006004044C4444444401010FF101010F050
:1057C0000000103C131014B840300E014080403FE0
:1057D00000000080808080FE8080C0A02020A0F09B
:1057E0003E242020202030200000000080601EFF8A
:1057F00004083010181E93901011FF109010101014
:10580000000000020100007F0000100806030120D4
:1058100020603F000001030E0800000000000000AF
:105820000000000000000000F8FEFEF8000000008C
:105830000000000000000000000000000000000068
:105840000000000000000000FF7F7FFF000000005C
:105850000000000000000000000000000000000048
:10586000000000F80C04040407FEFE070404040C06
:10587000F800000000000000000000000000000030
:10588000000000070C0808080C07070C0808080CA3
:105890000700000000000000000000000000000001
:1058A0000080808080C0C0C0C0C0C0808080800078
:1058B00000000000000000000000C06078FCF4F26E
:1058C000FF33F3F3F3F37F7F7B73F17D7DFDF9FF0E
:1058D000FB3A3E7CB0E0C0C00000073EFCFCFFDFAE
:1058E000DF2260E5FFBB3F383878787C3EBFFF5F42
:1058F000E79DE0F8E1F7FF3F000000000103070724
:105900000F0F1E0E091B1B1B131E0E0E0F0F0E0E6C
:10591000070703070301000000000000FCFCFCFC7B
:10592000FCFCFCFCFCFCFCFCFCFCFCFCFCFCFCFCB7
:10593000FCFCFCFCFCFCFCFC00000000FFFFFFFF8B
:10594000FFFFFFFFFFFFFFFFFFFFFFFFFFFFFFFF67
:10595000FFFFFFFFFFFFFFFF00000000FFFFFFFF53
:10596000FFFFFFFFFFFFFFFFFFFFFFFFFFFFFFFF47
:10597000FFFFFFFFFFFFFFFF000000001F1F1F1FB3
:105980001F1F1F1F1F1F1F1F1F1F1F1F1F1F1F1F27
:105990001F1F1F1F1F1F1F1F00000000000000000F
:1059A00000000000000000000000000000000000F7
:1059B00000000000000000000000000000000000E7
:1059C00000000000000000000000000000000000D7
:1059D00000000000000000000000000000000000C7
:1059E00000000000000000000000000000000000B7
:1059F00000000000000000000000000000000000A7
:105A00000000000000000000000000000000000096
:105A1000000000000000000000000000000080C046
:105A20002030100808040404040404040404040CD2
:105A30000818102040800000000000E03C07010032
:105A4000000000000000020202FFFF000000000052
:105A5000000000000001031CE000000F78C00000FF
:105A6000000000000000000000FFFF000000000038
:105A700000000000000080780F0000000001030615
:105A80000C181020204040414141414141404020FC
:105A900020101008040301000000000000008040F6
:105AA0002010180808040404848484040404040CEA
:105AB0000818102040800000000000E01C030100D6
:105AC000000000183E3301010100010183FE7E0049
:105AD000000000000001073CE000000F70800000A3
